:100000000C949F040C94C7040C94C7040C94C7046C
:100010000C94C7040C94C7040C94C7040C94C70434
:100020000C94C7040C94C7040C9493140C940515F9
:100030000C94C7040C94C7040C94C7040C94C70414
:100040000C94C7040C94C7040C94C7040C94C70404
:100050000C94C7040C94C7040C94C7040C94CE05EC
:100060000C94C7040C94C7040C94C7040C94C704E4
:100070000C94C7040C94C7040C94C7040C94C704D4
:100080000C94C7040C94C7040C94C7040C94C704C4
:100090000C94C7040C94C7040C94C7040C94C704B4
:1000A0000C94C7040C94C7040C94C70417050F05DF
:1000B00014050A051B051E05210524052C0534051C
:1000C0003C053F05E608B308BB08BF08C908CD08D2
:1000D000D108D508D908790A720A690A630A7F0A21
:1000E000840A890A8E0A930A9B0AA30AAB0AF0F8CB
:1000F0009C8E8783878E9CF8F00000FEFF0303032D
:100100000303070EFCF80000FEFF030303030307CD
:100110000EFCF80000FFFF00000000000000FFFFE1
:100120000000FEFF8383838383C7EE7C380000F8E2
:10013000FC0E07030303070EFCF800003F7FE0C03E
:100140008080C0E07F3FFFFF01010101010101FF4D
:10015000FF0000FFFF0C0C0C0C1C3E77E3C10000FD
:100160007FFFC0C0C0C0C0E0703F1F00001F3F70D5
:10017000E0C0C0C0E0703F1F00007FFFC1C1C1C12F
:10018000C1E3773E1C00001F3F70E0C0C0C0E070BC
:100190003F1F000000000001FFFF01000000D5F03C
:1001A0008D14A1C881CFD9F1AF200073636F726540
:1001B0003A004C6576656C3A20006C697665732070
:1001C0003A200047616D65204F76657200423A2003
:1001D0006261636B007A6F6E650053656C65637472
:1001E000000808F7FFF7A2F7FFF7FFFFFF85B185CB
:1001F000FFFFFFFFFFD3D5D5E5FFFFF7E7EF399C02
:10020000F7E7EFFF7D7D55557D7DFFFFABC7C7C786
:10021000C7EFFFFFFFD783C783D7FFFFC1DFC1FF52
:10022000C1F5FBFFEFC7C7C7C7ABFFFFFFFDC3812A
:10023000C3FDFFFFABC7C7C7C7EFFFFFFFBFC3814A
:10024000C3BFFF0000403C7E3C4000423A20626158
:10025000636B0046697265203A000808FFFF83D58A
:10026000D69D83FFFFFF83D596D583FFFFFF839D38
:10027000D6D583FFFFFF83DD9EDD83FFFFD5AEDB99
:100280009ADFAED5FFFF81D59DDD81FFFFFF819D08
:10029000D59D81FFFFFF81DD9DD581FFFFFF819D02
:1002A000DD9D81FFFFD4BE9BDE97BED4BF9FCF975D
:1002B00087CF9FBF08080FC703818103C70FF0E7EF
:1002C00003858103E7F0F3AD0E6A7E7D03BFFFBFB8
:1002D0000F777B6B07BFFFBF5F5F5F5F5FBFFFBFD6
:1002E0001962667E0AB12B2E2E2E00686F6C642078
:1002F0004100426F6D6200442D004220666F723AE9
:10030000002A6269702A004D6F766573003A2057A3
:10031000616974005475726E003A20456E6400572E
:10032000616C6C73005475726E00656D7074790049
:100330006C6566743A20006D696E65006E756B655C
:100340000073687566666C65007761727000657829
:10035000706C6F6465003A20003250206D6F6465E8
:10036000203A20005374617274696E67204C766C79
:10037000203A200020203C2D20204F7074696F6EA1
:100380000020203C2D2020325020537461727420B4
:10039000202D3E0020202020202031502053746149
:1003A000727420202D3E0070726573656E74730048
:1003B000438264726963204D617274696E0A000140
:1003C0000204081020408000000000003E5B4F5BEC
:1003D0003E3E6B4F6B3E1C3E7C3E1C183C7E3C18E8
:1003E0001C577D571C1C5E7F5E1C00183C1800FFCC
:1003F000E7C3E7FF0018241800FFE7DBE7FF3048FA
:100400003A060E2629792926407F050507407F05F3
:10041000253F5A3CE73C5A7F3E1C1C08081C1C3EEA
:100420007F14227F22145F5F005F5F06097F017FD8
:10043000006689956A606060606094A2FFA294087B
:10044000047E040810207E201008082A1C08081CBE
:100450002A08081E101010100C1E0C1E0C30383EFE
:100460003830060E3E0E06000000000000005F005F
:10047000000007000700147F147F14242A7F2A122B
:100480002313086462364956205000080703000011
:100490001C2241000041221C002A1C7F1C2A080843
:1004A0003E08080080703000080808080800006056
:1004B000600020100804023E5149453E00427F4042
:1004C0000072494949462141494D331814127F10A1
:1004D00027454545393C4A494931412111090736EB
:1004E00049494936464949291E0000140000004088
:1004F0003400000008142241141414141400412282
:10050000140802015909063E415D594E7C12111230
:100510007C7F494949363E414141227F4141413E2C
:100520007F494949417F090909013E414151737F92
:100530000808087F00417F41002040413F017F08BB
:100540001422417F404040407F021C027F7F04080C
:10055000107F3E4141413E7F090909063E4151213C
:100560005E7F09192946264949493203017F010363
:100570003F4040403F1F2040201F3F4038403F63E6
:100580001408146303047804036159494D43007F40
:100590004141410204081020004141417F04020111
:1005A00002044040404040000307080020545478B3
:1005B000407F284444383844444428384444287F01
:1005C000385454541800087E090218A4A49C787F5B
:1005D0000804047800447D40002040403D007F1026
:1005E00028440000417F40007C047804787C0804A3
:1005F00004783844444438FC182424181824241857
:10060000FC7C08040408485454542404043F442443
:100610003C4040207C1C2040201C3C4030403C445E
:10062000281028444C9090907C4464544C4400081A
:100630003641000000770000004136080002010248
:1006400004023C2623263C1EA1A161123A40402010
:100650007A3854545559215555794121545478418B
:10066000215554784020545579400C1E527212394D
:100670005555555939545454593955545458000006
:10068000457C410002457D420001457C40F0292423
:1006900029F0F0282528F07C545545002054547C3E
:1006A000547C0A097F493249494932324848483224
:1006B000324A4848303A4141217A3A424020780053
:1006C0009DA0A07D39444444393D4040403D3C24F8
:1006D000FF2424487E4943662B2FFC2F2BFF09293A
:1006E000F620C0887E090320545479410000447DDF
:1006F000413048484A32384040227A007A0A0A7229
:100700007D0D19317D2629292F28262929292630D2
:10071000484D4020380808080808080808382F10F5
:10072000C8ACBA2F102834FA00007B000008142A45
:10073000142222142A14089500220095AA005500BC
:10074000AAAA55AA55AA000000FF00101010FF0029
:10075000141414FF001010FF00FF1010F010F0141C
:100760001414FC001414F700FF0000FF00FF141421
:10077000F404FC141417101F10101F101F1414146D
:100780001F00101010F0000000001F101010101FAC
:1007900010101010F010000000FF101010101010BA
:1007A000101010FF10000000FF140000FF00FF00F9
:1007B000001F10170000FC04F41414171017141471
:1007C000F404F40000FF00F714141414141414F7C4
:1007D00000F7141414171410101F101F141414F41D
:1007E000141010F010F000001F101F0000001F1464
:1007F000000000FC140000F010F01010FF10FF14B7
:100800001414FF141010101F00000000F010FFFF60
:10081000FFFFFFF0F0F0F0F0FFFFFF00000000002E
:10082000FFFF0F0F0F0F0F38444438447C2A2A3E35
:10083000147E02020606027E027E0263554941636F
:100840003844443C04407E201E2006027E02029969
:10085000A5E7A5991C2A492A1C4C7201724C304A02
:100860004D4D303048784830BC625A463D3E49498B
:1008700049007E0101017E2A2A2A2A2A44445F4433
:100880004440514A444040444A51400000FF010363
:10089000E080FF000008086B6B083612362436062D
:1008A0000F090F060000181800000010100030405B
:1008B000FF0101001F01011E00191D1712003C3C21
:1008C0003C3C0000000000080B000202020100098D
:1008D00004000001020200000524001001052401AB
:1008E0000101042402060524060001070581031006
:1008F000004009040100020A00000007050202404E
:1009000000000705830240000004030904120100EF
:1009100002EF020140412336800001010203014140
:10092000726475696E6F204C4C4300417264756946
:100930006E6F204C656F6E6172646F009D2711248D
:100940001FBECFEFDAE0DEBFCDBF11E0A0E0B1E027
:10095000E0E2F3E502C005900D92AA3AB107D9F79B
:1009600026E0AAEAB1E001C01D92A53EB207E1F778
:1009700014E0CFE9D4E004C02197FE010E9483294E
:10098000CE39D107C9F70E9435170C948E290C94E3
:100990000000CF92DF92EF92FF920F931F93CF93BD
:1009A000DF936C017A018B01C0E0D0E0CE15DF054A
:1009B00089F0D8016D918D01D601ED91FC910190E6
:1009C000F081E02DC6010995892B11F47E0102C04A
:1009D0002196ECCFC701DF91CF911F910F91FF902E
:1009E000EF90DF90CF9008950895089580E090E013
:1009F0000895DC0112964C911297E42FEF704E2F60
:100A000050E04C30510508F043C0FA01EA5AFF4F5C
:100A10000C94832911968C911197855037C01196AB
:100A20008C9111978B5F32C08C918B5F02C08C913F
:100A300085508C9308958C91845118C08C91845169
:100A40000DC08C918A5002C08C91865F8C93119658
:100A50008C9111978C5E1AC08C918C5E8C93119640
:100A60008C911197865F12C08C918C5E8C9311963D
:100A70008C9111978A500AC08C91865F02C08C912C
:100A80008A508C9311968C911197845111968C9366
:100A900008950E948929CF93DF9300D000D0CDB76D
:100AA000DEB7611571058105910579F09B01AC01F7
:100AB00069833A834B835C830E94F02829813A81C1
:100AC0004B815C810E94142903C060E070E0CB017F
:100AD0000F900F900F900F90DF91CF9108953FB737
:100AE000F8948091E4019091E501A091E601B09124
:100AF000E70126B5A89B05C02F3F19F00196A11D5F
:100B0000B11D3FBFBA2FA92F982F8827820F911DA3
:100B1000A11DB11DBC01CD0142E0660F771F881FEA
:100B2000991F4A95D1F708958F929F92AF92BF92E5
:100B3000CF92DF92EF92FF926B017C010E946F05D2
:100B40004B015C01C114D104E104F104F1F00E94F5
:100B50006F05DC01CB0188199909AA09BB09883EF8
:100B60009340A105B10570F321E0C21AD108E10854
:100B7000F10888EE880E83E0981EA11CB11CC114F8
:100B8000D104E104F10419F7DDCFFF90EF90DF907D
:100B9000CF90BF90AF909F908F9008951F920F922B
:100BA0000FB60F9211242F933F938F939F93AF9380
:100BB000BF938091AA019091AB01A091AC01B0913B
:100BC000AD013091E30123E0230F2D3720F401968E
:100BD000A11DB11D05C026E8230F0296A11DB11D60
:100BE0002093E3018093AA019093AB01A093AC0101
:100BF000B093AD018091E4019091E501A091E601EF
:100C0000B091E7010196A11DB11D8093E40190937D
:100C1000E501A093E601B093E701BF91AF919F91E9
:100C20008F913F912F910F900FBE0F901F901895AD
:100C30004F925F927F928F929F92AF92BF92CF928C
:100C4000DF92EF92FF920F931F93CF93DF9300D029
:100C500000D0CDB7DEB7DC014115510509F4E8C07D
:100C6000FA01D490319694914E5F5F4F4D2C512CE8
:100C70002223E9F0E92FE695E695E695EE2EF12C94
:100C8000E1E0F0E0892F877011F4E0E0F0E0EE0D94
:100C9000FF1D4E9E70014F9EF00C5E9EF00C1124C5
:100CA0002E9DF0012F9DF00D11244E0F5F1F7D0131
:100CB000E40CF51C1E141F040CF0BAC0A038B105DA
:100CC0000CF0B6C09B01290F311D121613060CF053
:100CD000AFC0603471050CF0ABC04115510509F48B
:100CE000A7C09B0177FF04C022273327261B370BA1
:100CF000822F87709B0177FF02C0295F3F4FE3E09F
:100D000035952795EA95E1F7F22F77FF07C08823FD
:100D100029F0FFEFF20F28E0281B822FB7FF05C054
:100D2000662777276A1B7B0B02C060E070E000E853
:100D3000E016F10424F020E8E22EEA1A01C0ED2CBE
:100D4000E61A2F2F0F2E000C330BFF3F1CF4C22E80
:100D5000C09401C0C12C11E0E92FE77009F410E044
:100D6000969596959695910F290F311D293031054D
:100D700014F098E09F1BFC2CFF0E9D010F2D10E836
:100D80000103200D311D1124260F371FCD9C600D4E
:100D9000711D1124640F751F41E050E0082E02C040
:100DA000440F551F0A94E2F7EFEFE49FD001E59F4F
:100DB000B00D1124A095B095BC83AB837C809F0FB0
:100DC000F916B1F1F901E451FE4F6F01A12CB12CDC
:100DD000AE1440F5FB01EA0DFB1DE491E49F4001D8
:100DE000E59F900C11249A828982F7FC07C0F601D6
:100DF0001081E12FEA238E2AF6018082882359F0A0
:100E0000F6E0FF1544F0F601E058FF4F9080972080
:100E10008A80982890820FEFA01AB00A1FEFC11A9B
:100E2000D10AD6CFF394640D751D20583F4FC8CF1B
:100E30000F900F900F900F90DF91CF911F910F9116
:100E4000FF90EF90DF90CF90BF90AF909F908F90EA
:100E50007F905F904F9008952D9A0895BC0180E097
:100E600090E00C9494058FB12CB193B130E02095B3
:100E7000309520743327A90123E0559547952A958D
:100E8000E1F7292F30E020953095207133273595F3
:100E9000279535952795242B8095807F822B089563
:100EA00083B7817F83BF83B7816083BF889583B712
:100EB0008E7F83BF08958EBD00000DB407FEFDCF69
:100EC00008958091EC018EBDEDEEF1E081910DB4BD
:100ED00007FEFDCF8EBD85E0EC3EF807B9F70DB4F7
:100EE00007FEFDCF089560387105D0F440345105F8
:100EF000B8F4EFEBF3E080E1849FD001A0781124F7
:100F0000A60F4770E40FF11D8491A451BE4F222318
:100F100019F06C91862B03C080956C9186238C937D
:100F200008952F923F924F925F926F927F928F928D
:100F30009F92AF92BF92CF92DF92EF92FF920F9368
:100F40001F93CF93DF93CDB7DEB727970FB6F894F3
:100F5000DEBF0FBECDBF603871050CF06EC04034EF
:100F600051050CF06AC0FB0135E0C39EE00DF11D98
:100F700011241E161F060CF060C08C2C912CFA0157
:100F800038E0C39EE00DF11D11241E161F060CF063
:100F900054C02C2CEA8209833A0145E0249F800149
:100FA00011247F836E8309531C4F30E0FC0134967B
:100FB000FC83EB83F8015490353009F4512C530134
:100FC00088E0382E50FC02C04A8001C049804110A0
:100FD0000BC0FA814981F41307C056943A94A80CC7
:100FE000B91C3110EFCF1DC0EE80FF808E2D9E8189
:100FF000891B821590F765018C2D8A19821568F47A
:10100000242DA601B7018B819C813D830E9473072B
:101010005FEFC51AD50A3D81EFCF8FEFE81AF80AC6
:10102000E5CF3F5FEE81FF81E80DF91DFF83EE8381
:101030000F5F1F4F363009F0BDCF27960FB6F894DB
:10104000DEBF0FBECDBFDF91CF911F910F91FF90FB
:10105000EF90DF90CF90BF90AF909F908F907F9058
:101060006F905F904F903F902F900895CF92EF92A6
:101070000F93CF93DF93EC016A3069F42C8D888D48
:10108000998D38E0239F800D911D1124998F888FB1
:101090001F8A1E8A2EC06D3061F1262F488D598D12
:1010A0006E897F89CC8CEB8C0A8D0E9491072C8DE8
:1010B000422F50E08E899F8936E0239F800D911D3D
:1010C00011249F8B8E8B2D8D222399F06AEF640360
:1010D0009001659F300D112420583F4F2817390784
:1010E00044F4E881F9810190F081E02D6AE0CE01BD
:1010F000099581E090E0DF91CF910F91EF90CF9033
:101100000895EF92FF920F931F93CF93DF938091F7
:101110000401811103C0A8E2B6E002C0ADE3B6E06D
:101120003091AE01CDE5D6E021E010EC00E385E0A2
:10113000F82E94E0E92E9C91FE013297808198135D
:1011400046C011969C9111973196808198133FC0AB
:10115000E8814E2F50E049305105B8F5FA01EE59BB
:10116000FF4F0C94832913968C9113978F5F1396DE
:101170008C9313972BC012962C93129727C0169618
:101180008D919C911797499617969C938E931697DD
:101190001DC01296EC92129719C01296FC921297EB
:1011A00015C012960C93129711C012961C931297A9
:1011B0000DC0311102C0ADE3B6E015968C911597C4
:1011C0008F5F15968C93159701C02C9318822396E8
:1011D00086E0C636D80709F0AECFDF91CF911F91D8
:1011E0000F91FF90EF9008950F93FC01618170E0E3
:1011F0006D5F7F4F20818091050190910601820FE4
:10120000911D01E027E047E001960E949A100F919E
:101210000895CF93DF933091020122E0ADE3B6E071
:10122000EEEEF5E090E09317F1F04C91EF0122978C
:101230008881481315C011964C9111972196888189
:1012400048130EC080818F708F3051F014968C91AE
:10125000149787FD05C08F6014968C9381E00AC0B7
:101260009F5F3496E0CFA8E2B6E0213011F021E094
:10127000D7CF80E0DF91CF910895EF92FF920F9347
:101280001F93CF93DF93EC012A968C010A5E1F4FC8
:101290008A81882359F12091E00122FB222720F93D
:1012A000488150E04B5F5F4FFE0162917F0170E02B
:1012B0006D5F7F4F8091050190910601680F791F46
:1012C00089E696E00E947307688170E06A5F7F4F4D
:1012D000F701208130E02C5F3F4F80910501909114
:1012E000060142E0820F931F0E94B80F2496C01798
:1012F000D10771F6DF91CF911F910F91FF90EF9081
:101300000895FC01613049F080F0623051F06330A3
:1013100079F48181841B818308958181480F418301
:1013200008958081480F408308958081841B8083C5
:101330000895FC018481282F2F70611101C02B5F5B
:101340008F30A1F087FF04C08091E00181FF2FC0A2
:10135000618170E06E5F7F4F3081809105019091D7
:1013600006014AE552E0830F911D1FC02091E00164
:1013700091818081E0910501F0910601233150F4C3
:10138000611102C029E001C024E0692F70E06E5FA6
:101390007F4F05C0692F70E06E5F7F4F2AE04AE5FE
:1013A00052E0DF01A80FB11DCD010C94180608957D
:1013B000EF92FF920F931F93CF93DF93E82EF62EB9
:1013C0000E94F02824E630E040E050E00E9414291A
:1013D0006832710581059105BCF580915D06882311
:1013E00059F080916006882351F080916306811145
:1013F0002BC0C2E0D0E005C0C0E0D0E002C0C1E038
:10140000D0E08E01000F111FF801EC0FFD1FE55A0F
:10141000F94FE082F18260E570E080E090E00E94A8
:101420004B05E7E1F1E090E080E02191920F8F5FC2
:10143000961718F48830C9F788ECC00FD11FC55A29
:10144000D94F8A8381E001C080E0DF91CF911F9165
:101450000F91FF90EF9008956623A1F0FC01228187
:10146000222391F02150618170E06E5F7F4F3081C7
:10147000809105019091060141EE51E0830F911D8D
:101480000C9418060C94F4080895362F2AE0622F65
:101490000E947729482F832F0E94772928E0829F76
:1014A000C0011124840F911D0895893C08F05BC090
:1014B000462F50E04C30510508F055C0FA01E5596F
:1014C000FF4F0C948329883008F44DC090E00897B2
:1014D000089590E001969C0127703327232B09F093
:1014E00044C041C0282F30E08832E8F5C901089691
:1014F0000895982F9770B9F190E00197089560E0F2
:101500000E94550A60E01BC060E00E94550A60E03E
:101510000EC061E00E94550A61E021C061E00E94B6
:10152000550A61E014C062E00E94550A62E00E9420
:10153000550A61E0BACF62E00E94550A62E00E945B
:10154000550A63E0B2CF63E00E94550A63E00E944F
:10155000550A62E0AACF63E00E94550A63E00E9448
:10156000550A60E0A2CF8FEF9FEF08950F931F936E
:10157000CF93DF931F92CDB7DEB7182F062F498385
:101580000E94550A9C0149812F3F8FEF380761F176
:10159000433061F1043040F0F901E155FE4F908194
:1015A000967081E021F120C080E190E002C0880FB8
:1015B000991F0A95E2F7E12FF0E0E155FE4F6081B7
:1015C00070E086239723892B79F4F901E155FE4FCA
:1015D000808182FF04C081E0423031F408C081FF85
:1015E00005C081E0413019F480E001C081E00F9036
:1015F000DF91CF911F910F9108952F923F924F92BB
:101600005F926F927F928F929F92AF92BF92CF9292
:10161000DF92EF92FF920F931F93CF93DF93CDB79B
:10162000DEB767970FB6F894DEBF0FBECDBF082FA9
:1016300010E0F801E155FE4F8081807F8860808353
:10164000CE0101963C0182E1F30111928A95E9F7FE
:101650008FEF9FEF9C838B839E838D8398878F83EF
:101660009A8789879C878B879E878D87988B8F87A2
:101670009A8B898B1A8309836B8B693010F0F8E0A1
:10168000FB8B212C6301312CFB893F1661F0F601A5
:10169000F080F2E0CF0ED11C42E0622D8F2D0E942F
:1016A000B60A81111DC0239484E02812EBCF6796FF
:1016B0000FB6F894DEBF0FBECDBFDF91CF911F9163
:1016C0000F91FF90EF90DF90CF90BF90AF909F90E1
:1016D0008F907F906F905F904F903F902F900895E4
:1016E000622D8F2D0E94550A5C01F6019183808343
:1016F0008F3FFFEF9F07B9F281559E4F4C01FC01D0
:10170000808182FF37C052E08DE3482E86E0582E5C
:1017100040E072018AE0E80EF11C92012A5E3F4F20
:10172000F7016081319780812C8B3D8B4E8B5F8BD5
:101730000E94450A2C893D894E895F89801791074F
:1017400019F4F201438106C0F4E0EF0EF11CE21639
:10175000F30631F798E2492E96E0592E513011F0F8
:1017600051E0D7CF442311F0642F01C06B898A2D3B
:101770000E94FD0AF4018081807F88608083339419
:1017800083CFCF92DF92EF92FF920F931F93CF936D
:10179000DF93662361F0182F009102019EEEE92E7F
:1017A00095E0F92EC0E0D0E0C82ED12C13C0DF9117
:1017B000CF911F910F91FF90EF90DF90CF900C94FD
:1017C0008108F70180818F708F3039F02196F4E025
:1017D000EF0EF11CC017A8F311C03197608131974B
:1017E00080810E94450A8C159D0581F7CC0FDD1F75
:1017F000CC0FDD1FC451DA4F86EB8983C0E0D0E007
:10180000C12ED12C08E0FE01EE5AF94F7F01618113
:1018100080810E94450AC816D90641F4F701128258
:1018200061E0812F0E94FD0A0093E0012396C930F8
:10183000D10549F7DF91CF911F910F91FF90EF9064
:10184000DF90CF9008952F923F924F925F926F92C8
:101850007F928F929F92AF92BF92CF92DF92EF9240
:10186000FF920F931F93CF93DF9300D01F92CDB7BA
:10187000DEB7912C80E098E0492E512C612C712C20
:1018800090910201991608F03EC124E0929E7001E9
:101890001124F701E451FA4FFB83EA835F01F2E080
:1018A000AF0EB11CEA81FB811281912F9F709F3096
:1018B00009F427C1107F92831111BCC0618180811E
:1018C0000E94450A6C01882EEA81FB818381823067
:1018D00009F072C00E94F028A30192010E9414290D
:1018E0006C5FEA81FB81628388E0382EF50100811C
:1018F00041E0602F882D0E94B60A882309F44AC06F
:10190000F601FF27E155FE4F80818D7F8083602F98
:101910008C2D0E94550AFC01E155FE4F80818260AA
:101920008083EA81FB81618170E06E5F7F4F30814F
:10193000809105019091060123E044EB52E0830F72
:10194000911D0E94180689E696E00E94610760E5F5
:1019500070E080E090E00E949405EA81FB81618163
:1019600070E06E5F7F4F308180910501909106019C
:1019700024E044EB52E0830F911D0E94180689E693
:1019800096E00E94610760E570E080E090E00E94D0
:10199000940540C00F5F0C3018F4F501008303C0BC
:1019A00024E0F50120833A943110A0CFF701E451EF
:1019B000FA4F8281806232C00E94F02824E030E039
:1019C00040E050E00E941429EA81FB81628394E0A8
:1019D0003A802B80F501008141E0602F882D9983AA
:1019E0000E94B60A99818823D9F0F601FF27E155B4
:1019F000FE4F80818D7F8083602F8C2D0E94550A41
:101A0000FC01E155FE4F808182608083832D922D01
:101A10000E94F904EA81FB818281806182836AC02D
:101A20000F5FF501043010F4008301C01082915063
:101A300089F6BCCF103109F054C08A819B810E9485
:101A4000F904EA81FB8183818230B9F5618170E01C
:101A50006E5F7F4F3081809105019091060124E0F7
:101A600044EB52E0830F911D0E94180689E696E030
:101A70000E94610760E570E080E090E00E949405BC
:101A8000EA81FB81618170E06E5F7F4F30818091E0
:101A900005019091060123E044EB52E0830F911D74
:101AA0000E94180689E696E00E94610760E570E0F2
:101AB00080E090E00E94940518E0F701E451FA4FAD
:101AC000618180810E94450AFC01FF27E155FE4F9C
:101AD000208120FF03C061E00E94C10B110F110F94
:101AE00009C0103831F48091E001843119F410E01C
:101AF00001C0110FF701E451FA4F8281182B1283B4
:101B000081E09394BDCE0F900F900F90DF91CF9115
:101B10001F910F91FF90EF90DF90CF90BF90AF900B
:101B20009F908F907F906F905F904F903F902F90FD
:101B30000895CF93DF93C82FD62F63E00E94550AF4
:101B40008F3F2FEF9207A9F0EC2FF0E0E155FE4F09
:101B5000208127FF06C0FC01E155FE4F8081806295
:101B600007C0DD2331F0FC01E155FE4F80818F7D00
:101B7000808362E08C2F0E94550A8F3F2FEF9207DF
:101B8000A9F0EC2FF0E0E155FE4F208126FF06C0C2
:101B9000FC01E155FE4F8081806107C0DD2331F0FB
:101BA000FC01E155FE4F80818F7E808361E08C2FA8
:101BB0000E94550A8F3F2FEF9207A9F0EC2FF0E01B
:101BC000E155FE4F208125FF06C0FC01E155FE4F87
:101BD0008081806807C0DD2331F0FC01E155FE4FB4
:101BE00080818F77808360E08C2F0E94550A8F3F21
:101BF0002FEF9207A9F0EC2FF0E0E155FE4F208186
:101C000024FF06C0FC01E155FE4F8081806407C0BF
:101C1000DD2331F0FC01E155FE4F80818F7B808315
:101C2000DF91CF9108953F924F925F926F927F9292
:101C30008F929F92AF92BF92CF92DF92EF92FF92DC
:101C40000F931F93CF93DF93D0910301EFEAEE2E12
:101C5000E1E0FE2E670100E010E0F4E64F2E512C8B
:101C6000612C712CA4E0AA2EB12CDD23D9F0802F99
:101C700087708430B8F0F501E81BF109EE0FFF1F03
:101C8000E00FF11FE255FE4F8081982F9074282FAE
:101C90002F7AC82FC07184FDC0E4C20F911190E16A
:101CA000C90F13C064E0962EC0E0CC0F0E94F0284C
:101CB000A30192010E9414296431710581059105E7
:101CC0000CF4C05F9A949110F0CFD601CD936D01C2
:101CD0000F5F1F4F0033110541F610E050E1C52E94
:101CE000D12CC0E0D0E06C2F812F0E94550A0196C4
:101CF00059F4F701808196010C2E01C0220F0A943D
:101D0000EAF7282BD7012C932196C430D10559F737
:101D10001F5FBFEFEB1AFB0A103319F78091CE015A
:101D20008F7E8093CE018091C7018F7B8093C70106
:101D30008091C8018F7E8093C8018091CD018F7BF7
:101D40008093CD01C0E060E08C2F0E94990DCF5FA1
:101D5000C033C9F782E0809364068CEEC82E85E01C
:101D6000D82ECFEED5E0F12C9AE5E92E2FE0322ED9
:101D700034E6432E512C612C712C42E0942E8824A1
:101D8000839420910201F21608F06FC0233068F0AE
:101D9000822F90E08C0103501109000F263030F0A3
:101DA0000697982F990F890F02C000E080E010E09D
:101DB000065F1F4F5801A80EB11CB5010B2C000C7B
:101DC000880B990B0E944B056B3010F418820AC0E7
:101DD00070E00617170714F0888204C0A616B7062D
:101DE0000CF0988268E070E080E090E00E944B0583
:101DF000660FB62EBB0CBB0C6B0DBB24B394B60E9A
:101E000066E070E080E090E00E944B05660F062FD0
:101E1000000F000F600F01E0060F602F8B2D0E9456
:101E2000450A8831F9F28F31E9F2E82FF0E0E15507
:101E3000FE4F8081182F127081FDD4CFD601BC9245
:101E4000DE0112970C93826080830E94F028A30128
:101E500092010E94142963337105810591050CF4E8
:101E600010E4FE013197108308C0FE013297E08232
:101E7000F601E082FE0131973082F394F4E0CF0E58
:101E8000D11C24962FE0F2127CCF82ED8093410684
:101E900081E080933D068FE180933E0610924906D3
:101EA00010924D061092510690910301992371F101
:101EB00090ED90932C0697E4909328068093290642
:101EC000109234061092380610923C0610925D066D
:101ED00010925406109260061092570610926306F4
:101EE00010925A061092DF01DF91CF911F910F914E
:101EF000FF90EF90DF90CF90BF90AF909F908F902A
:101F00007F906F905F904F903F90089583E680930D
:101F1000290680932806DACFDF92EF92FF920F9383
:101F20001F93CF93DF937C01D22E8B01040F111DE1
:101F3000EB0177FF0EC0C0E0D0E00BC0C417D5079F
:101F40007CF42D2DAE01B70189E696E00E9473075F
:101F50002196A801013411058CF340E450E0EECF46
:101F6000DF91CF911F910F91FF90EF90DF90089537
:101F70002F923F924F925F926F927F928F929F9299
:101F8000AF92BF92CF92DF92EF92FF920F931F9387
:101F9000CF93DF9300D000D0CDB7DEB78C017B01AB
:101FA000242F30E03C832B8381E090E05C01A21A77
:101FB000B30AC9019195819591091C01220C331C2A
:101FC000A901460F571F20E0B80189E696E00E945C
:101FD0007307A7018B819C81481B590B20E0B80136
:101FE00089E696E00E9473076B817C81600F711F08
:101FF00020E0A70189E696E00E947307B801EB8113
:10200000FC816E1B7F0B20E0A70189E696E00E9411
:102010007307C12CD12C21E030E03A8329832B8136
:102020003C81C216D3060CF06EC0B7FC0AC08B818F
:102030009C8101979C838B8392E0290E311CA20C1A
:10204000B31CEFEFCE1ADE0A29813A812E5F3F4F93
:102050003A832983A20EB31E3601600E711E20E062
:102060008B809C808E0C9F1CA401B30189E696E0B6
:102070000E94730728014C185D0820E0A401B201FA
:1020800089E696E00E94730720E047018B819C81DE
:10209000881A990AA401B30189E696E00E947307A1
:1020A00020E0A401B20189E696E00E947307460190
:1020B0008E0C9F1C20E0A4016B807C80600E711E42
:1020C000B30189E696E00E94730720E0A40128018D
:1020D000EB81FC814E1A5F0AB20189E696E00E940C
:1020E000730747018C189D0820E0A401B30189E61D
:1020F00096E00E94730720E0A401B20189E696E011
:102100000E9473078CCF0F900F900F900F90DF916C
:10211000CF911F910F91FF90EF90DF90CF90BF90E4
:10212000AF909F908F907F906F905F904F903F9077
:102130002F900895CF92DF92EF92FF920F931F930B
:10214000CF93DF936B01122FEC017C01E40EF11CA5
:10215000CE15DF0544F4202F412FB601CE010E9499
:102160008C0F2196F5CFDF91CF911F910F91FF90AA
:10217000EF90DF90CF9008952F923F924F925F9211
:102180006F927F928F929F92AF92BF92CF92DF9287
:10219000EF92FF920F931F93CF93DF9300D000D065
:1021A000CDB7DEB75C014B01322E842F90E09C83CB
:1021B0008B83440F4F5F681B790BC5010E948C0F06
:1021C00001E010E0EB81FC810E1B1F0BCF0191950C
:1021D000819591093C01660C771CE12CF12CCC24F3
:1021E000C394D12C8B819C81E816F9060CF046C073
:1021F00017FD0AC08B819C8101979C838B8392E0A1
:10220000690E711C060D171DEFEFEE1AFE0AF2E0C3
:10221000CF0ED11C0C0D1D1D2B80220C2394232DC1
:10222000422D24018B819C81481A590AB201C701B1
:102230008A0D9B1D0E948C0FF401EE19FF09FA8391
:10224000E983232D4C2DBF018B819C818A0D9B1D21
:102250000E948C0F232D422DB201C5018E199F09BA
:102260000E948C0F232D4C2D69817A81C501EB8151
:10227000FC818E1B9F0B0E948C0FB4CF0F900F9090
:102280000F900F90DF91CF911F910F91FF90EF90E2
:10229000DF90CF90BF90AF909F908F907F906F9086
:1022A0005F904F903F902F9008955F926F927F9232
:1022B0008F929F92AF92BF92CF92DF92EF92FF9256
:1022C0000F931F93CF93DF93EC018B017A01A90148
:1022D000461B570B57FF03C0519541955109C70144
:1022E0008C1B9D0B97FF03C09195819591095524F7
:1022F00053948417950714F0512C0AC09E2D8F2DEE
:102300007901292F382F9C2F8D2FE801092F182FA5
:10231000EC16FD0654F4902F812F8901292F382FB8
:102320009C2F8D2FE701E92EF82E37016C1A7D0ABC
:102330005901A01AB10AB7FE03C0B194A194B10823
:10234000630177FE03C08FEFC81AD80AD594C794EB
:102350000217130714F08FEF01C081E0882E880F59
:102360009908EC16FD06B4F020E0552019F0AE01F6
:10237000B80102C0A801BE0189E696E00E94730779
:10238000CA18DB08D7FE04C0080D191DC60CD71CDF
:102390002196E7CFDF91CF911F910F91FF90EF90A2
:1023A000DF90CF90BF90AF909F908F907F906F9075
:1023B0005F90089520916F06282329F490916E066E
:1023C000982381E009F480E008950F931F93CF9341
:1023D000DF938C01C0E0D0E0F801EC0FFD1F6491A9
:1023E000662371F0E0916506F09166060190F08138
:1023F000E02D85E696E00995892B11F02196ECCF2A
:10240000CE01DF91CF911F910F91089580E0ECEE06
:10241000F1E081118FEF0024819381938193819367
:102420000394D1F70895009769F0FC010190002012
:10243000E9F73197AF01481B590BBC0185E696E0DF
:102440000C94C90480E090E008958F929F92AF921F
:10245000BF920F931F93CF93DF93CDB7DEB7A197B2
:102460000FB6F894DEBF0FBECDBF19A2423008F4FC
:102470004AE08E010F5D1F4F842E912CA12CB12CB0
:10248000A50194010E944629E62FB901CA01015015
:102490001109EA3014F4E05D01C0E95CD801EC9365
:1024A000232B242B252B61F7C8010E941312A19620
:1024B0000FB6F894DEBF0FBECDBFDF91CF911F9155
:1024C0000F91BF90AF909F908F900895CF92DF9221
:1024D000EF92FF92CF93DF936C01990FEE08FF0804
:1024E000F7FE1FC0E0916506F09166060190F0814D
:1024F000E02D6DE285E696E00995EC0166277727E9
:10250000CB016C197D098E099F094AE00E942512B2
:102510008C0F9D1FDF91CF91FF90EF90DF90CF90B8
:1025200008954AE0C701B601DF91CF91FF90EF9087
:10253000DF90CF900C942512CF93DF930E9413125B
:10254000EC0186EA91E00E9413128C0F9D1FDF912F
:10255000CF910895FC018091EB01811103C08FEFB1
:102560009FEF08959FB7F89482E08093E90020914F
:10257000F20030E01216130614F421E030E02115C9
:10258000310559F0289884E68093EA018091F100A2
:1025900080838091F200882319F09FBFC9010895BC
:1025A0008BE68093E800F9CF2FB7F89483E080930F
:1025B000E9009091E800892F807295FF04C0909106
:1025C000F20080E4891B2FBF08958F929F92AF92F3
:1025D000BF92CF92DF92EF92FF920F931F93CF9310
:1025E000DF935C016B017A0180910E01882309F46D
:1025F0005BC08091EB01882309F456C08091E9010A
:1026000080FF05C08091E00082608093E000E701D8
:1026100010E00AEF83E0882E9AE3992E2097D9F1F3
:102620000E94D41281110AC0015009F43DC061E03A
:1026300070E080E090E00E949405F0CF282F30E019
:10264000C217D3070CF48C2F4FB7F8948092E9008F
:102650009091E80095FF1DC0282F30E0C21BD30BDE
:10266000F601982F915020F081918093F100FACFDC
:10267000C20ED31E112319F09092E80009C0809178
:10268000E80085FD06C09092E80011E0209709F06F
:1026900010E04FBFC3CF1111C3CF5D9884E6809384
:1026A000E8011E141F0444F081E090E0F5019383DB
:1026B000828380E090E001C0C701DF91CF911F913C
:1026C0000F91FF90EF90DF90CF90BF90AF909F90D1
:1026D0008F9008958091870681110DC082E08093CC
:1026E000830684E080938406109286061092850605
:1026F00081E08093870683E896E00895CF93DF9387
:102700001F92CDB7DEB76983DC01ED91FC910280A9
:10271000F381E02D41E050E0BE016F5F7F4F0995EE
:102720000F90DF91CF91089583E08093E90080912D
:10273000F200882319F08AE38093E8000895FC01F1
:102740008485958597FD0BC09FB7F89482E08093B0
:10275000E9008091F2009FBF90E0019608959FB735
:10276000F89482E08093E9008091F2009FBF90E0AE
:1027700008954091E3065091E4062091E1063091DE
:10278000E20642175307B4F49091E8009570E1F324
:102790009091E80092FD19C08093F1008091E306CA
:1027A0009091E40601968F739927892B19F48EEF87
:1027B0008093E8008091E3069091E406019690935F
:1027C000E4068093E30681E0089580E00895DF92B7
:1027D000EF92FF920F931F93CF93DF93D82E8A012E
:1027E0007B01E40EF51EEB01CE15DF0571F0D7FE7F
:1027F00003C0FE01849101C088810E94B913219613
:102800008111F2CF8FEF9FEF01C0C801DF91CF910F
:102810001F910F91FF90EF90DF900895615030F07D
:102820002091F100FC0120830196F8CF289884E6DE
:102830008093EA0108950E94D41290E00895CF9306
:10284000DF931F92CDB7DEB7FC018485958597FD98
:1028500005C02FEF3FEF358724870BC0CE010196CF
:102860000E94AA12019719F4898190E002C08FEFAB
:102870009FEF0F90DF91CF9108950F931F93CF9308
:10288000DF931F92CDB7DEB78C01FC01848595855F
:1028900097FF0EC0CE0101960E94AA12019719F46B
:1028A000298130E002C02FEF3FEFF8013587248700
:1028B000F801848595850F90DF91CF911F910F913D
:1028C00008950F931F93CF93DF931F92CDB7DEB779
:1028D00082E0898342E450E067EC78E080E80E947F
:1028E000E7130E946A13DC0112960D911C91139755
:1028F0000115110569F0D801ED91FC910280F38179
:10290000E02DBE016F5F7F4FC801099597FF07C09B
:1029100089810F90DF91CF911F910F910895F80158
:1029200000851185E5CF1F920F920FB60F921124EB
:102930008F939F938091E1009091E100937F90931A
:10294000E10083FF0FC01092E90091E09093EB004B
:102950001092EC0092E39093ED001092EB0198E05E
:102960009093F00082FF20C093E09093E900909153
:10297000F200992319F09AE39093E8009091E8010E
:10298000992339F09091E80191509093E8019923AF
:1029900089F19091EA01992339F09091EA019150DF
:1029A0009093EA01992341F184FF10C08091E200E5
:1029B0008E7E81608093E2008091E1008F7E809323
:1029C000E1008091E9018E7E806111C080FF16C018
:1029D0008091E2008E7E80618093E2008091E10030
:1029E0008E7E8093E1008091E9018E7E81608093EC
:1029F000E90104C05D9ACDCF289AD6CF9F918F91DF
:102A00000F900FBE0F901F9018951F920F920FB648
:102A10000F921124CF92DF92EF92FF920F931F93A8
:102A20002F933F934F935F936F937F938F939F93D6
:102A3000AF93BF93EF93FF93CF93DF93CDB7DEB701
:102A40006C97DEBFCDBF1092E9008091E80083FF54
:102A5000EDC168E0CE0145960E940E1482EF80938E
:102A6000E8008D8987FF05C09091E80090FFFCCFBA
:102A700003C09EEF9093E800982F907609F0C6C0AF
:102A80009E892F89188D91110CC0803829F480916E
:102A9000E0068093F10002C01092F1001092F10064
:102AA00048C1422F50E0512B913051F4811141C166
:102AB0004130510509F03DC18091E0068D7F0BC08A
:102AC000933061F4811135C14130510509F031C1B4
:102AD0008091E00682608093E0062BC1953041F43E
:102AE0008091E80080FFFCCF20682093E30021C1A3
:102AF000963009F05FC0EB8CFC8C1092E9001092CC
:102B0000E4061092E306123091F51092E20610925C
:102B1000E1060E94611499E0BE016F5F7F4FDB0107
:102B2000E92F1D92EA95E9F799831A8391E09E8334
:102B300090EA98879AEF99872091E3063091E4060E
:102B4000275F3F4F3C832B838D831092E9001092C7
:102B5000E4061092E306F092E206E092E10649E014
:102B600050E080E00E94E7130E946114E2C0F092FE
:102B7000E206E092E1060E946A13DC011296ED90F3
:102B8000FC901397E114F10409F4C0C0D701ED9152
:102B9000FC910480F581E02DBE016B5E7F4FC70183
:102BA0000995009719F00CF0C4C0C7C0F701E08484
:102BB000F184E8CF973009F4C0C0983021F481E067
:102BC0008093F100B6C0993009F0B3C0837009F06A
:102BD000B4C0E7E4F1E081E021E036E3908199239D
:102BE00061F08093E9002093EB0091919093EC00C9
:102BF0003093ED008F5F873089F78EE78093EA008E
:102C00001092EA008F898093EB0193C08B8D9C8D8D
:102C10001092E9001092E4061092E3069093E20607
:102C20008093E106898D811156C08E899D89913AE4
:102C300059F4813209F081C047E050E067E071E06B
:102C400080E00E94E71375C0913209F076C08332AC
:102C500089F4888D90E0982F88272F89822BA0E017
:102C6000B0E080930F0190931001A0931101B093F5
:102C700012015FC0803269F48091E80082FFFCCFCE
:102C800067E087E091E00E940E148BEF8093E800EC
:102C900006C0823209F04DC08F8980930E01809169
:102CA000DF06882319F0EEEFFAE002C0E0E0F8E07A
:102CB0008091070190910801A0910901B0910A014A
:102CC000803B9440A105B10509F07BC080910E01C5
:102CD00080FF93C076C00E946A13DC0112960D91AA
:102CE0001C9113970115110541F1D801ED91FC914B
:102CF0000190F081E02DBE016B5E7F4FC801099508
:102D0000811117C0F80100851185ECCF113009F44D
:102D10004EC0133091F48F89882309F445C0823066
:102D200081F440E860E18BE299E00E946528882305
:102D300021F08EEF8093E80079C081E28093EB0070
:102D400075C0813029F440E86BE08FE199E0EDCF68
:102D5000833099F70E946A13DC011296ED90FC9083
:102D600013978E010F5F1F4F6801E114F10479F092
:102D7000D701ED91FC910680F781E02DB801C701E4
:102D80000995080F111DF701E084F184EECFD801F9
:102D90001C92F60101900020E9F73197BF016C19F0
:102DA0007D0940E0C601C1CF69E079E002C06DE075
:102DB00079E06115710509F2FB01449150E080E86A
:102DC00040CF0FB6F894A8958091600088618093F9
:102DD0006000109260000FBEA895EE3F2AE0F20757
:102DE00039F08091FE0A9091FF0A91838083A1CFF0
:102DF0001092FF0A1092FE0A9CCFEE3F8AE0F8077D
:102E000031F0808191819093FF0A8093FE0A87E7D9
:102E100097E7918380839BE088E10FB6F894A895AB
:102E2000809360000FBE9093600083CF6C960FB6C6
:102E3000F894DEBF0FBECDBFDF91CF91FF91EF9130
:102E4000BF91AF919F918F917F916F915F914F91C2
:102E50003F912F911F910F91FF90EF90DF90CF90B6
:102E60000F900FBE0F901F901895CF93DF93CDB7A3
:102E7000DEB72B970FB6F894DEBF0FBECDBF7894A8
:102E800084B5826084BD84B5816084BD85B582606F
:102E900085BD85B5816085BD80916E008160809320
:102EA0006E00109281008091810082608093810089
:102EB0008091810081608093810080918000816099
:102EC0008093800080919100826080939100809136
:102ED0009100816080939100809190008160809347
:102EE00090008091C10084608093C1008091C100F6
:102EF00082608093C1008091C10081608093C10095
:102F00008091C30081608093C3008091C000826083
:102F10008093C0008091C20081608093C200809144
:102F20007A00846080937A0080917A008260809336
:102F30007A0080917A00816080937A0080917A0093
:102F4000806880937A001092EB011092E006109254
:102F5000E9018091D70081608093D70080EA809357
:102F6000D80089B5806189BD89B5826089BD09B401
:102F700000FEFDCF61E070E080E090E00E949405EB
:102F80008091D8008F7C80618093D8008091E00090
:102F9000807F8093E0008091E1008E7E8093E1004D
:102FA0008DE08093E200559A209AEEEFFFE785913D
:102FB00094918B3F9C4D19F481E08093DF0681EC66
:102FC00080937C0085B1806F85B9249884B1866E2A
:102FD00084B95E9A5F988AB1806D8AB9769A6E9844
:102FE00081B3806F81BB899880B38D7080BB80E591
:102FF0008CBD81E08DBD85E090E00E942E075F9A38
:1030000085E090E00E942E075E985C980EE911E042
:103010009DE0F92EF00EF80184910E945B070F5F8E
:103020001F4FF012F8CF5C9A81E88093640081E032
:103030008093650000E014E080E00E945B0701508F
:103040001109D1F70E94330787FF1FC05C9885EAFA
:103050000E945B075C9A2E982F982D9880916400AF
:103060008062809364000E945007FDCF2D980E94DB
:1030700033078478843871F00E9433078471843177
:1030800031F188EC90E00E942E070E94330782FD08
:10309000EDCF3AC00E942C0788EC90E00E942E07EA
:1030A0002F9882E090E00E94FE288F3F29F06FEF7A
:1030B00082E090E00E94062984EF91E00E942E07B2
:1030C0002F9A0E94330784788438D9F3D5CF0E9491
:1030D0002C0788EC90E00E942E072E9882E090E06A
:1030E0000E94FE28882329F060E082E090E00E94A0
:1030F000062984EF91E00E942E072E9A0E94330742
:1031000084718431D9F3BDCF0E942C0782E090E016
:103110000E94FE28882331F03E9A3F9A81E08093F6
:10312000E10104C01092E1013E983F982E980EEE06
:103130001FEF88E0A82EB12C0E94330786FF04C041
:103140002E9A2F9A2D9A90C00C3FFFEF1F0719F46B
:103150002E9A2F9805C00831110511F42F9A2D9839
:103160000E940612003F2FEF120794F489E696E0C2
:103170000E9461078BE190E00E942E07003F3FEF25
:10318000130709F05BC08AEF90E00E942E0756C03B
:10319000980117FF04C022273327201B310B27700B
:1031A0003327C80117FD0796B3E095958795BA9523
:1031B000E1F717FF05C00197A501421B530B9A01C8
:1031C0007C01F694FE2CEE24F794E79460E070E026
:1031D0003501621A730AD701A058BF4F4D018F3FC6
:1031E000BFEF9B0744F40196685A7F4F7401603B20
:1031F000710589F7BBCFD701A058BD4F40E050E023
:103200008F3FEFEF9E0711F40C948325FA01E60F30
:10321000F71FE251FF4FE4916D01C818D908CE0C99
:10322000DF1CF0E01F01022E01C0220C0A94EAF715
:10323000F6015080252820820C9483250F5F1F4FB4
:103240000931110509F078CF8CEB92E00E942E072E
:103250000E942C07E0916906F0916A060190F081C6
:10326000E02D89E696E0099582E390E00E942E0722
:103270000E9433078111F8CF0E94061210927E0639
:1032800010927D0610927C0610927B0680E180935E
:103290007006809164008E7F8093640080917A0034
:1032A000806480937A0080917A0086FDFCCF009143
:1032B0007800109179000E946F0520E030E09801BD
:1032C00011270027600F711F821F931F6115710561
:1032D0008105910511F00E94F528809164008160BC
:1032E000809364008FEA91E0F0E3F80FFA872FB73C
:1032F000F8948091AA019091AB01A091AC01B0919A
:10330000AD012FBF4091750650917606609177060A
:103310007091780620917906222349F02091710658
:10332000821B80937A06109279060C947925841773
:103330009507A607B70748F4481B423010F40C94D1
:1033400079250E9450070C94792521E02093790675
:103350008093710690937206A0937306B0937406DF
:1033600020917006820F911DA11DB11D80937506DD
:1033700090937606A0937706B093780680916C06BA
:1033800090916D06019690936D0680936C060E9455
:10339000061210927E0610927D0610927C06109204
:1033A0007B061091E0011F5F1093E00180916E0693
:1033B00080936F060E94330780936E062091E2018E
:1033C0002C8321112AC11F3F51F08091DF0181110F
:1033D00006C0A12EB12C3EEFA31AB10805C081E0B2
:1033E0008093DF01A12CB12C8091DF01811122C0DB
:1033F000163E00F586E190E090937C0680937B0674
:103400008FE090E090937E0680937D0680EB93E0C2
:103410000E94E51187E290E090937C0680937B0602
:1034200089E190E090937E0680937D0687EA93E0A1
:103430000E94E511B5016E5B7F4FE3E0CE2EE12CDB
:1034400001E02DE449E150E085E696E00E94910715
:10345000B5016E5A7F4F21E449E150E085E696E0E0
:103460000E949107B5016E597F4F2AE549E150E06E
:1034700085E696E00E949107B5016E587F4F25E4DE
:1034800049E150E085E696E00E94910761E070E036
:103490006A197B0922E441E050E085E696E00E944B
:1034A000910761E170E06A197B092FE441E050E087
:1034B00085E696E00E94910761E270E06A197B0957
:1034C0002DE441E050E085E696E00E94910761E33B
:1034D00070E06A197B0922E441E050E085E696E05D
:1034E0000E94910761E470E06A197B0925E441E0DC
:1034F00050E085E696E00E94910761E570E06A1968
:103500007B0922E541E050E085E696E00E949107C4
:103510008091DF018823E1F010927C0610927B06F7
:1035200087E390E090937E0680937D068091010171
:10353000823039F0833041F0813051F484E993E0F6
:1035400005C081E893E002C084E793E00E94E511A2
:1035500080E20E94DA11882339F0809101018230E3
:1035600018F081508093010180E40E94DA118823D1
:1035700039F080910101833018F48F5F809301014D
:1035800088E00E94DA11882311F40C94752580914B
:10359000DF018823E9F1809101018093E20183300A
:1035A00010F00C94752543E04093420640932D069D
:1035B00010922F0610922E06109244061092430687
:1035C00010922A0610923F0691E090932B0690935A
:1035D0004006813051F482E08093E20110920301B1
:1035E0008AE58093280610922C066091E00155E24E
:1035F000659FB00111246115710511F40C94A0258B
:10360000072E000C880B990B0E94F5280C94A0251E
:1036100081E08093DF010C9475258C81833009F063
:1036200092C0A0900001B12CCC24C394E12C01E005
:103630002BE1A50160E070E085E696E00E9491072D
:103640002AE1A50164E070E085E696E00E9491071A
:103650000CE010E010937C0600937B068AE090E07B
:1036600090937E0680937D0684E693E00E94E511A8
:103670006091020170E080E090E04AE00E94251233
:1036800010937C0600937B0684E190E090937E0685
:1036900080937D0689E593E00E94E5118091AE015B
:1036A000811103C080E591E002C08DE491E00E94A9
:1036B000131280E10E94DA11882339F08091000111
:1036C000883218F4865F8093000180E80E94DA1146
:1036D000882339F080910001882319F08A50809363
:1036E000000188E00E94DA1181110AC080E20E9484
:1036F000DA11811105C080E40E94DA11882371F08B
:10370000809100018A3011F40C94A325843131F4A6
:103710009091AE0181E089278093AE0184E00E9400
:10372000DA11882311F40C9475251092E2010E949D
:10373000061210927E0610927D0610927C06109260
:103740007B060C9475259C81913081F410927C0647
:1037500010927B0687E390E090937E0680937D062F
:1037600085E591E00E9413120C947525AC81A2307E
:1037700011F00C94D32420910401809105019091C3
:103780000601222381F08E32910504F52EE230E00D
:10379000281B390B35952795820F931F90930601AF
:1037A0008093050113C083309105BCF09C01225029
:1037B000310937FF02C02F5F3F4F35952795821B98
:1037C000930B909306018093050107C05DE3852E5E
:1037D00056E0952EA12CB12C07C038E2832E36E09E
:1037E000932E47E5A42EB12C00E020E44FE160E0E9
:1037F00070E0C5010E949A100E943307F5013596CA
:103800003F0183FFE5C0CC24C394E12C01E028E113
:1038100043E050E0B50185E696E00E949107709282
:103820007C0660927B0683E090E090937E06809316
:103830007D0686E593E00E94E511D40112968C91F5
:10384000813069F4B0927C06A0927B068CE090E017
:1038500090937E0680937D068EE493E058C0853079
:1038600069F4B0927C06A0927B068CE090E0909385
:103870007E0680937D0689E493E049C0843069F434
:10388000B0927C06A0927B068CE090E090937E063E
:1038900080937D0681E493E03AC0982F907369F09D
:1038A000B0927C06A0927B068CE090E090937E061E
:1038B00080937D068CE393E02AC0807CE1F087E36F
:1038C00093E00E94E511B0927C06A0927B068CE00A
:1038D00090E090937E0680937D0680E393E00E94C3
:1038E000E511F4018281829586958695837090E03A
:1038F0000E9466120EC0B0927C06A0927B068CE0FD
:1039000090E090937E0680937D068AE293E00E9489
:10391000E511CC24C394E12C01E02BE149E150E016
:10392000B50185E696E00E9491072AE149E150E061
:10393000B30185E696E00E949107C5010D9690932C
:103940007C0680937B0689E190E090937E068093CD
:103950007D0685E293E00E94E511B0927C06A0927C
:103960007B0682E290E090937E0680937D068FE155
:1039700093E00E94E51129E14FE250E0B50185E6B0
:1039800096E00E94910770927C0660927B068FE21F
:1039900090E090937E0680937D06809103018823BA
:1039A000A1F089E193E00E94E511FFE0AF0EB11CA8
:1039B000B0927C06A0927B0688E390E090937E060E
:1039C00080937D0684E193E06FC08DE093E06CC04E
:1039D000B0927C06A0927B0601E010E010937E0678
:1039E00000937D06809103018823B9F087E093E07E
:1039F0000E94E511C501839690937C0680937B0617
:103A000010937E0600937D066091640670E080E06E
:103A100090E04AE00E94251208C08091DF018823CF
:103A200021F081E093E00E94E511B0927C06A09223
:103A30007B0684E190E090937E0680937D068AEF7A
:103A400092E00E94E51170927C0660927B068EE106
:103A500090E090937E0680937D06D40112968C911F
:103A6000813021F487EF92E00E94E51182EF92E02D
:103A70000E94E511B0927C06A0927B068DE290E058
:103A800090937E0680937D068BEE92E00E94E51176
:103A9000B0927C06A0927B0687E390E090937E062E
:103AA00080937D0686EE92E00E94E511C0900501AC
:103AB000D090060101E020E444E560E070E0C6013A
:103AC00002970E949A1080910401811103C008E2BC
:103AD00016E002C00DE316E02FEA422E21E0522E3E
:103AE00012011D828D8187707601BAE08B9FE00CF8
:103AF000F11C11246D80669466946694EAE06E9ED3
:103B0000300111245301F2E0AF0EB11CD1018C91B0
:103B100087FF12C095014701B9E08B0E911CA401EB
:103B2000B501C7010E945511B3016F5F7F4F9B0123
:103B3000A401C7010E945511F101808185FF14C0C5
:103B4000B301655F7F4F9B014701F9E08F0E911C28
:103B5000A401C7010E945511B301645F7F4F9B010F
:103B6000A401C7010E945511D1018C9186FF12C09A
:103B70004301BBE08B0E911C9401C7010996AC0177
:103B8000B5010E9455119401C7010A96AC01B50117
:103B90000E945511F101808184FF11C04301FBE0B7
:103BA0008F0E911C9401A701B501C7010E94551108
:103BB0009401C7010197AC01B5010E945511D101D3
:103BC0008C9183FF28C03091E0013F3048F447EFEB
:103BD000430FB3016A5F7F4F20E0C701059615C010
:103BE0003431B0F4B6E06B0E711CE5E0EE0EF11C62
:103BF00020E045E0B301C7013B870E94BC103B8534
:103C000043EF430F21E0B301C7010E94BC1003C082
:103C1000807FD1018C93BD81BF5FBD83EFEF2E1AF2
:103C20003E0AB03309F05ECF61E08BE596E00E947A
:103C30002C0A61E08EE596E00E942C0A61E081E6A4
:103C400096E00E942C0A92E5A92E96E0B92EE12C6E
:103C5000F12C97012E5A394F4901D90112968C91B6
:103C60001297882319F12091E00126952170119671
:103C70004C9150E04B5F5F4FF501608170E06D5FEC
:103C80007F4F6C0D7D1D89E696E00E947307D4017D
:103C900011966C9170E06A5F7F4FF501808190E032
:103CA000049642E08C0D9D1D0E94B80FF3E0EF0ECC
:103CB000F11C23E0A20EB11C39E0E316F10449F631
:103CC000C12C86EA782EE0900201CE1408F0A4C13F
:103CD00044E0C49E70011124C70184519A4F5C01D5
:103CE000DC0113968C9113978111B1C012968C91BF
:103CF0001297982F9F7080900501909006019F3039
:103D000009F452C011966C91119770E06E5F7F4F6D
:103D10008C9120E044EB52E0F401E80FF11DCF015B
:103D20000E941806D50112968C9112978F708330DD
:103D3000D9F011964C91119750E04A5F5F4F6C910A
:103D400070E06D5F7F4F680D791D8091E001829575
:103D5000817088871986E885F9856E0F7F1F21E0BD
:103D600089E696E00E947307F701E451FA4F41811A
:103D700050E0475F5F4F608170E06E5F7F4F680D7E
:103D8000791D8091E00183FB882780F98E831F8253
:103D90008E819F81880F991F2E813F81820F931FF3
:103DA000680F791F21E032C13091E001333190F486
:103DB00084FD10C0D50111966C91119770E06E5F73
:103DC0007F4F8C9121E044EB52E0F401E80FF11DAC
:103DD000CF016CC0A70144515A4F5A01DA01119624
:103DE0006C91119770E06E5F7F4F8C912AE04AE5ED
:103DF00052E0F401E80FF11DCF013B870E94180645
:103E00003B85343109F006C1D50112966C901297AA
:103E1000862D806112968C93129711968C90119733
:103E20009C90682D892D0E94450AFC01E155FE4FAA
:103E300090819160908365FC70C0682D892D0E94EF
:103E4000D809882309F469C0F501718266C08230FF
:103E500009F06AC0D50112962C911297822F8F70AB
:103E60008F3079F024FDD6C011966C91119770E0D7
:103E70006E5F7F4F3C91809105019091060122E099
:103E800011C03091E001809105019091060133311C
:103E900080F424FD0EC0F501618170E06E5F7F4FFC
:103EA000308125E044EB52E0830F911D0E941806FB
:103EB000B1C0A70144515A4F5A01DA0111966C91D1
:103EC000119770E06E5F7F4FEC912AE04AE552E077
:103ED0008E0F911D3B870E9418063B85343109F0F7
:103EE00099C0F5016280862D8061828381809080F7
:103EF000682D892D0E94450AFC01E155FE4F9081F5
:103F00009160908365FC09C0682D892D0E94D809B5
:103F1000882319F0D50111967C92F701E451FA4FEC
:103F200082818062828376C0813009F073C0F5019E
:103F300082818F708F3009F46DC080900501909060
:103F40000601618170E06A5F7F4F808190E0049696
:103F500043E0880D991D0E94B80F3091E0013C703C
:103F600021E0343009F020E0F701E451FA4F4181BB
:103F700050E0475F5F4F608170E06F5F7F4F8091DF
:103F8000050190910601680F791F89E696E03B874D
:103F90000E94730721E03B853C3009F020E0A70137
:103FA00044515A4F7A01DA0111964C91119750E021
:103FB000475F5F4F6C9170E0695F7F4F680D791DBF
:103FC00089E696E00E947307F70182818F70833043
:103FD00009F1418150E04A5F5F4F608170E06D5FA1
:103FE0007F4F680D791D20E089E696E00E947307F7
:103FF000D70111964C91119750E04A5F5F4F6C9139
:1040000070E06B5F7F4F680D791D20E089E696E0D8
:104010000E947307C39457CE8DE396E00E943D093A
:10402000F0900301FF2049F088E296E00E943D09EC
:1040300060E088E296E00E94990961E08DE396E0F5
:104040000E9499098091DF018111E2C1F80161812B
:1040500080810E94450A6C0184E00E94DA11882365
:1040600009F44DC00E94330783FDC2C1D8011196E7
:10407000EC901197DC906E2D8D2D0E94450AAC01BD
:1040800041555E4FFA01908192FDB2C1D8011C9654
:104090008C911C97882361F050968C9150978823BF
:1040A00051F054968C918111A3C122E030E005C0FB
:1040B00020E030E002C021E030E0220F331F220F69
:1040C000331FD801A20FB31F1996DC9219971A96C5
:1040D000EC92F11002C086E001C089E0D801A20F85
:1040E000B31F1C968C931C97F8018281813019F4C0
:1040F0008FEF1C968C939460DA019C9342C180E808
:104100000E94DA11F82E882309F4D0C00E943307E8
:1041100083FFBBC0F80122812130B1F48091DF011F
:104120009091E0013C96085E1F4F3081332319F0D7
:1041300020838F2D99E03496E017F107B1F7809333
:10414000DF019093E00154C1822F807C09F440C0CC
:1041500080915406882361F080915706882359F096
:1041600080915A06811144C1F2E0EF2EF12C06C075
:10417000E12CF12C03C0EE24E394F12C922F9295C4
:104180009695969593709150F0E49F9FC0011124ED
:104190002F73822BD80112968C9312971196DC9074
:1041A00011971C916D2D812F0E94450AFC01E1554C
:1041B000FE4F908191609083F701EE0FFF1FEE0D8F
:1041C000FF1DEE5AF94F1083D18281E08283DAC05D
:1041D000243009F044C01C2D16951695169500E064
:1041E000BC2DB770EB2E802F8770E81669F0802FFA
:1041F000869586958695181739F00F5FEFEF4E1A62
:104200005E0A003381F7BDC064E0F62E0E94F028FC
:1042100024E630E040E050E00E941429623371054A
:1042200081059105C4F4D2018C91982F907F282F9D
:10423000207830E053E0369527955A95E1F7B2E0C3
:104240009B9F200D11248F70822BF201808361E0EF
:10425000802F0E94990DFA94F110D8CFCECF822FE3
:10426000807321F081E08093DF018FC0253009F059
:10427000BFC0F3E0F093E00181E08093DF0189E2C9
:104280008093000180930101B3C040E063E08C2D76
:104290000E94B60A882309F489C0D80111968C912E
:1042A00011978A5011968C9380E081C080E10E9422
:1042B000DA118823B1F00E94330783FF04C081E044
:1042C000809364065FC040E061E08C2D0E94B60AD6
:1042D000882309F44FC4F8018181865F818380E0DF
:1042E0004AC480E40E94DA11882321F10E94330736
:1042F00083FF12C0F601FF27E155FE4F90819923FD
:1043000009F476C0892F807F869583FF02C0807F65
:1043100080689F70892B30C040E062E08C2D0E9445
:10432000B60A882309F429C4D8018C91865F8C933E
:1043300080E024C480E20E94DA11882309F458C086
:104340000E94330783FF24C0F601FF27E155FE4F8B
:104350008081882309F44CC0982F907F282F2078E3
:1043600030E043E0369527954A95E1F7B2E09B9F10
:10437000200D11248F70822B808361E08C2D0E9490
:10438000990D81E08093DF0189E08093E00130C0E6
:1043900040E060E08C2D0E94B60A882309F4F0C347
:1043A000F80180818A50808380E0EBC381E023E0C4
:1043B000D80114966C911497607F622B14966C93BD
:1043C000811116C090913D06809128069813DBC399
:1043D00090913E06809129069813D5C362E0620F42
:1043E000643010F06EEF620F4AE0C8010E9481094C
:1043F00020910201EEEEF5E080E0821709F4D5C3CA
:1044000090819F7034969F3009F06FC38F5FF5CF16
:10441000C0900401CC2029F09DE3A92E96E0B92E8E
:1044200004C088E2A82E86E0B82EF5018085882396
:1044300049F064816F7045E0C5010E948109D50192
:1044400018961C920E9481088091E0018A3009F040
:104450007CC00E94090922E090E00DE3A02E06E056
:10446000B02E8501045F1F4F4501F8E18F0E911CAE
:10447000F5018281813031F0D8018C91853610F0C0
:10448000E3E0EC93D8018C91882391F081508C93D8
:1044900081110EC0F80132976081319780812B879E
:1044A0000E94450AF50163810E94FD0A91E02B8577
:1044B0000C5F1F4F08151905D9F618E2A12E16E05A
:1044C000B12E213011F021E0CCCFEFEAF1E0819163
:1044D00083FD91E02A852E13FACF992309F476C142
:1044E000A8E2AA2EA6E0BA2EF12C850134E0F39EB4
:1044F000000D111D1124D8011C968C911C97882346
:10450000A9F01A966C911A9719968C910E94450AF7
:10451000FC01E155FE4F208123FF08C0F5016381B6
:104520000E94FD0AD8011C961C92F12CF394B2E073
:10453000BF15D8F6BDE3AB2EB6E0BB2EEC81E13063
:1045400009F401C4F1E0FC83CFCF833171F4809191
:1045500041068F3009F4C9C280912C068F3011F4C6
:10456000F110C3C20E94230CC0C2843109F044C0C0
:10457000809141068F3009F4B8C280912C068F30AB
:1045800011F4F110B2C20E94230C0E94090981119A
:1045900031C08091E001843109F0A7C2F801848123
:1045A00087FF12C0982F907792959F708F708483A9
:1045B000915051F0282F2068F0E19F9FC0011124F5
:1045C000822BD80114968C9380916406815080933D
:1045D00064068111B6C380910301882309F4B1C335
:1045E00084E0809364069091040181E089278093A0
:1045F00004017BC28BE0F5C08E3109F067C0809169
:1046000041068F3041F090912C069F3009F05BC03D
:10461000F11003C058C0FF20B1F19091AE0191118B
:1046200017C08F3051F480914306909144060A9749
:10463000909344068093430626C080912D068150B6
:1046400080932D0680912E0690912F060A970CC01C
:10465000909142069150909342068F3051F4809190
:104660002E0690912F060A9690932F0680932E0681
:104670003CC280914306909144060A96909344066A
:104680008093430632C28091420681508093420655
:104690002CC280E20E94DA11811190C280E40E9453
:1046A000DA1181118DC280E80E94DA1181118AC26B
:1046B00080E10E94DA11811187C284E00E94DA1140
:1046C000882309F46CC11092DF010FC2833330F0EC
:1046D0001092E00184E08093E20107C2823009F089
:1046E00083C0CC2039F0F0903F06F2947FE0F722AF
:1046F00010E006C0F0902A06F2946FE0F62217E56B
:10470000A12EB12C00E020E44AE260E070E0C50197
:104710000E949A10B0927C06A0927B0688E090E0FE
:1047200090937E0680937D0683E592E00E94E511DA
:10473000B501665F7F4FCC24C394E12C01E02BE1EF
:1047400049E150E085E696E00E949107B5016C5E74
:104750007F4F2AE149E150E085E696E00E9491070B
:104760004501BFE08B0E911C29E14EE150E0B40100
:1047700085E696E00E94910728E144E150E0B4010B
:1047800085E696E00E949107B0927C06A0927B0697
:1047900088E390E090937E0680937D068BE492E020
:1047A0000E94E511012FEAE0FE9E000D1124101772
:1047B00009F46FCF812F90E02CE041EE51E068E2E8
:1047C00070E005960E941806165FF1CF80914106B1
:1047D0008F3009F48AC180912C068F3009F469C3A7
:1047E00082E18093E00181C1843009F07EC1C11073
:1047F00002C087E501C080E0E82EF12C00E020E453
:104800004AE260E070E0C7010E949A10F0927C06D4
:10481000E0927B0688E090E090937E0680937D0690
:104820008AED91E00E94E511C7010C9690937C06F9
:1048300080937B0682E190E090937E0680937D06D4
:1048400085ED91E00E94E511F0927C06E0927B06F6
:1048500088E390E090937E0680937D068DEC91E056
:104860000E94E51188E00E94DA1100910101109187
:104870000001882399F080910401882329F0009396
:104880003D0610933E0604C00093280610932906A7
:1048900089E08093E0015524539409C084E00E948C
:1048A000DA11811102C0512C02C032ED532E80E882
:1048B0000E94DA11882329F01A3018F01A50109348
:1048C000000180E10E94DA11882351F080910001FB
:1048D000282F30E0223331051CF4865F80930001DD
:1048E00080E40E94DA11882349F0802F90E086341A
:1048F000910524F48AE0800F8093010180E20E94F8
:10490000DA11882339F0809101018A3018F08A5039
:1049100080930101809100018A5FE82EF12C17013C
:10492000B2E02B1A3108009101010C5F8091050162
:10493000080F10E04801E2E08E1A91083701F4E018
:104940006F1A7108580124E0A21AB1089101A4015C
:10495000B301C5010E945511670132E0C30ED11C9D
:1049600044E0E40EF11C9601A401B701C5010E94C8
:104970005511580154E0A50EB11C0E5F1F4F970151
:10498000A501B601C8010E9455119301A501B1010D
:10499000C8010E94551182ED581609F494CE8091F9
:1049A000E00181501ECF9C81943009F08AC0809133
:1049B0004206882321F080912D06811111C084E1E7
:1049C00090E090937C0680937B0610927E06109276
:1049D0007D0683EC91E00E94E511DD24D3940DC0A7
:1049E0008AEB91E00E94E5116091420670E080E060
:1049F00090E04AE00E942512D12C9AE2E92EF12C97
:104A0000F0927C06E0927B0604E110E010937E06B3
:104A100000937D0682EB91E00E94E5116091020116
:104A200070E080E090E04AE00E942512F0927C065F
:104A3000E0927B062EE1E22EF12CF0927E06E092CF
:104A40007D068BEA91E00E94E5112091030180919F
:104A50004306909144062223D9F010937C060093DC
:104A60007B0608E210E010937E0600937D060E940C
:104A7000661280E590E090937C0680937B0610930D
:104A80007E0600937D0680912E0690912F060AC027
:104A900020E530E030937C0620937B06F0927E0682
:104AA000E0927D060E9466128091E0018338E8F072
:104AB000DD2019F01092E20118C082E08093E2013B
:104AC0003FC010927C0610927B0610927E061092D8
:104AD0007D068CE691E00E949C1282E891E00E94A3
:104AE0009C1285E991E00E949C1289E696E00E9462
:104AF000610780E090E0892B11F40C9477190E94F3
:104B000000000C9477192115310581F0FA01E60FA8
:104B1000F71FE251FF4FE491F0E0062C02C0F5953B
:104B2000E7950A94E2F7DC90ED29EC934F5F5F4F35
:104B300011964835510511F00C9400190C94F31896
:104B40000E94130ED2CF80E20E94DA1190910201EE
:104B5000882321F0915029F48FE008C09F5F9031A5
:104B600020F4909302010C948E1B81E0809302014B
:104B70000C948E1B81E021E01BCC81E022E018CC5C
:104B800081E020E015CCFF24F394D8011896FC9224
:104B90006F7045E0C8012B870E948109F092DF0108
:104BA00088E08093E0012B8519CC1092E0018F30D2
:104BB00008F090CD8F5F809302018CCD10E005C08E
:104BC00012E003C013E001C011E0802F90E000E08C
:104BD0002AE04AE068E270E005970E949A1080900F
:104BE00004018820E1F1E8E2F6E0618180810E9421
:104BF000450A2C01811005C058E2E52E56E0F52E3D
:104C000004C04DE3E42E46E0F42ED70112968C91B9
:104C10001297805112968C93129714968C91149738
:104C2000807F812B14968C93149711966C91119719
:104C30008C9189836A8399E0910F9B830E94450A36
:104C40006C015201BB247C2C41E0612F8C2D0E9411
:104C5000B60A882339F0CA14DB04F1F503C0EDE38A
:104C6000F6E0C3CF42E0612F872D0E94B60A882369
:104C700089F1C2019927C816D90609F05DC0FC0167
:104C8000E155FE4F98E09083082F61E00E94990D56
:104C900010E0612F802F0E94550A9C01FC01E15514
:104CA000FE4F908198609083FF24F394F10E1330AF
:104CB00011F06F2D01C060E0822F0E94550AFC01A7
:104CC000E155FE4F9081986090831F2D143009F7B5
:104CD00089E087CDC601D3CF612F8C2D0E94550A64
:104CE0006C01CE0101960E94F408682DC7010E9454
:104CF00099091230B1F48981865F02C089818A5096
:104D0000898361E0CE0101960E942C0A89E696E033
:104D10000E94610768E270E080E090E00E949405E4
:104D200092CF133019F48A818A5004C0113031F7C0
:104D30008A81865F8A83E5CF612F872D0E94550A7D
:104D40009ECF8DE14ECD0EEE15E0F12C8FE0D82EEA
:104D5000FE14D1F1F80131976081319780810E9472
:104D6000450AFC01FF27E155FE4F208123FF28C0A3
:104D7000D8012C912F702F3001F1DC922091430645
:104D800030914406265F3F4F3093440620934306FC
:104D900020912E0630912F06265F3F4F30932F062D
:104DA00020932E0611962C91213051F468E00E9438
:104DB000FD0A88E08093E00103C062E00E94C10B1D
:104DC000F3940C5F1F4FC4CFF4E5EF2EF6E0FF2EF7
:104DD00000E010E0F70131976081319780810E94F7
:104DE000450AF70120812223C9F0FC01FF27E15584
:104DF000FE4F208123FF12C09801220F331FF901BB
:104E0000E00FF11FEE5AF94F128261E00E94FD0A95
:104E100088E08093E00100E010E00EC00F5F1F4FBC
:104E2000F3E0EF0EF11C03301105A1F6F4CF0D5F96
:104E30001F4F09301105A9F09801255A394F790102
:104E4000D90111966C9111978C910E94450A815558
:104E50009E4FFC01808183FFEACFD70112961C92FE
:104E6000E6CF60913E0680913D060E94450A81553D
:104E70009E4FFC01808183FF04C08091410687FF23
:104E800014C060912906809128060E94450A815528
:104E90009E4FDC018C9183FF28CE80912C0687FDEC
:104EA00024CE8FE080932C0620CE8FE080934106A5
:104EB000E8CFF1101ACE94CC0F931F93CF93DF93CA
:104EC000EC0181E090E00E94FE2880FF2EC08AE085
:104ED00090E00E94FE289FEF980F9E3F30F522E35E
:104EE00030E03F8B2E8B28E330E0398F288F0BE0AA
:104EF00010E0E881F9810190F081E02D682FCE016A
:104F00000995C8010E94FE280F5F1F4F013111054E
:104F100081F7CE0104960E94610788EE93E0DF914D
:104F2000CF911F910F910C942E07DF91CF911F917C
:104F30000F91089504970C945C271092920610929A
:104F4000910688EE93E0A0E0B0E080939306909302
:104F50009406A0939506B093960683E291E0909311
:104F6000900680938F068FEF9FEF90939C0680931F
:104F70009B06109268061092670610926E061092B9
:104F80006F0620E12093700690936D0680936C0667
:104F90001092750610927606109277061092780697
:104FA0001092790685E391E09093660680936506FA
:104FB00083E491E090936A068093690610927C06E0
:104FC00010927B0610927E0610927D0681E08093FF
:104FD0007F0610928006809381061092820682E0FE
:104FE0008093640680E090E0FC01E55AF94F12825C
:104FF00011821082039689309105B1F780E090E02C
:1050000023E6FC01EE5AF94F208321831282039696
:1050100089309105B1F723E02093420610924506AE
:1050200010924606109247061092490610924A06C0
:1050300010924B0610924D0610924E0610924F069B
:105040001092510681E080933D069FE190933E06C9
:1050500010923F068093400610924106109244063B
:105060001092430620932D061092300610923106BE
:1050700010923206109234061092350610923606BF
:10508000109238061092390610923A0610923C0699
:1050900027E4209328069093290610922A068093ED
:1050A0002B0610922C0610922F0610922E0680E0EE
:1050B00090E0FC01E451FA4F1082118212821382B7
:1050C00004968C339105A9F70895CF92DF92EF9261
:1050D000FF920F931F93CF93DF931F92CDB7DEB74D
:1050E000182F062FE42E862F880F8E5F99830E943B
:1050F000B91383E00E94B913F12EC12E9981D92EE4
:105100008C2D8F19801798F4F601E7FE02C0849168
:1051100001C080810E94B913182F80E00E94B9134A
:105120008123FFEFCF1ADF0A8111EACF01C081E0AE
:105130000F90DF91CF911F910F91FF90EF90DF9033
:10514000CF9008958F929F92AF92BF92CF92DF92AD
:10515000EF92FF92CF93DF93EC01688179818A818E
:105160009B81611571058105910521F464E279ED5A
:105170008BE597E02DE133EF41E050E00E941429E8
:1051800049015A019B01AC01A7EAB1E40E9433290D
:105190006B017C01ACEEB4EFA50194010E944129A2
:1051A000DC01CB018C0D9D1DAE1DBF1DB7FF03C0E3
:1051B0000197A109B04888839983AA83BB83BC0166
:1051C000CD019F77DF91CF91FF90EF90DF90CF904F
:1051D000BF90AF909F908F9008950E94A22808954D
:1051E00083E191E00E94A2280895609313017093D7
:1051F000140180931501909316010895F999FECF3B
:1052000092BD81BDF89A992780B50895262FF99906
:10521000FECF1FBA92BD81BD20BD0FB6F894FA9A99
:10522000F99A0FBE01960895052E97FB1EF400947F
:105230000E942B2957FD07D00E94462907FC03D066
:105240004EF40C942B2950954095309521953F4F65
:105250004F4F5F4F089590958095709561957F4F62
:105260008F4F9F4F08950E946829A59F900DB49F6E
:10527000900DA49F800D911D11240895B7FF0C94EB
:1052800033290E943329821B930B0895A1E21A2E21
:10529000AA1BBB1BFD010DC0AA1FBB1FEE1FFF1FDA
:1052A000A217B307E407F50720F0A21BB30BE40B2A
:1052B000F50B661F771F881F991F1A9469F7609571
:1052C0007095809590959B01AC01BD01CF0108952B
:1052D000A29FB001B39FC001A39F700D811D112437
:1052E000911DB29F700D811D1124911D0895991B70
:1052F00079E004C0991F961708F0961B881F7A95CD
:10530000C9F780950895EE0FFF1F0590F491E02DE9
:10531000099481E090E0F8940C948E29F894FFCFE2
:105320000A020101012E0000E1000000000000FF60
:10533000FFFFFF010000000A0A0A0A0A0A0A0A001F
:105340000000007E13E5121B1494139F131F143DDD
:1053500014000000003608C904F604F5045C27FCBC
:10536000FF00009A270400C180810000005653000E
:10537000436F6F7000572E4769746875622E636FB4
:105380006D2F736B6174657263656400706C656129
:105390007365207265636F6D70696C6520776974E1
:1053A0006800746869732067616D6520696E636C5D
:1053B00075646564002823696E636C756465207884
:0A53C00078785F6829000D0A0000EC
:00000001FF
